{"abi":[{"type":"constructor","inputs":[{"name":"_messenger","type":"address","internalType":"address"},{"name":"_scrollChain","type":"address","internalType":"address"},{"name":"_enforcedTxGateway","type":"address","internalType":"address"}],"stateMutability":"nonpayable"},{"type":"function","name":"appendCrossDomainMessage","inputs":[{"name":"_target","type":"address","internalType":"address"},{"name":"_gasLimit","type":"uint256","internalType":"uint256"},{"name":"_data","type":"bytes","internalType":"bytes"}],"outputs":[],"stateMutability":"nonpayable"},{"type":"function","name":"appendEnforcedTransaction","inputs":[{"name":"_sender","type":"address","internalType":"address"},{"name":"_target","type":"address","internalType":"address"},{"name":"_value","type":"uint256","internalType":"uint256"},{"name":"_gasLimit","type":"uint256","internalType":"uint256"},{"name":"_data","type":"bytes","internalType":"bytes"}],"outputs":[],"stateMutability":"nonpayable"},{"type":"function","name":"calculateIntrinsicGasFee","inputs":[{"name":"_calldata","type":"bytes","internalType":"bytes"}],"outputs":[{"name":"","type":"uint256","internalType":"uint256"}],"stateMutability":"view"},{"type":"function","name":"computeTransactionHash","inputs":[{"name":"_sender","type":"address","internalType":"address"},{"name":"_queueIndex","type":"uint256","internalType":"uint256"},{"name":"_value","type":"uint256","internalType":"uint256"},{"name":"_target","type":"address","internalType":"address"},{"name":"_gasLimit","type":"uint256","internalType":"uint256"},{"name":"_data","type":"bytes","internalType":"bytes"}],"outputs":[{"name":"","type":"bytes32","internalType":"bytes32"}],"stateMutability":"pure"},{"type":"function","name":"dropCrossDomainMessage","inputs":[{"name":"_index","type":"uint256","internalType":"uint256"}],"outputs":[],"stateMutability":"nonpayable"},{"type":"function","name":"enforcedTxGateway","inputs":[],"outputs":[{"name":"","type":"address","internalType":"address"}],"stateMutability":"view"},{"type":"function","name":"estimateCrossDomainMessageFee","inputs":[{"name":"_gasLimit","type":"uint256","internalType":"uint256"}],"outputs":[{"name":"","type":"uint256","internalType":"uint256"}],"stateMutability":"view"},{"type":"function","name":"finalizePoppedCrossDomainMessage","inputs":[{"name":"_newFinalizedQueueIndexPlusOne","type":"uint256","internalType":"uint256"}],"outputs":[],"stateMutability":"nonpayable"},{"type":"function","name":"gasOracle","inputs":[],"outputs":[{"name":"","type":"address","internalType":"address"}],"stateMutability":"view"},{"type":"function","name":"getCrossDomainMessage","inputs":[{"name":"_queueIndex","type":"uint256","internalType":"uint256"}],"outputs":[{"name":"","type":"bytes32","internalType":"bytes32"}],"stateMutability":"view"},{"type":"function","name":"initialize","inputs":[{"name":"_messenger","type":"address","internalType":"address"},{"name":"_scrollChain","type":"address","internalType":"address"},{"name":"_enforcedTxGateway","type":"address","internalType":"address"},{"name":"_gasOracle","type":"address","internalType":"address"},{"name":"_maxGasLimit","type":"uint256","internalType":"uint256"}],"outputs":[],"stateMutability":"nonpayable"},{"type":"function","name":"isMessageDropped","inputs":[{"name":"_queueIndex","type":"uint256","internalType":"uint256"}],"outputs":[{"name":"","type":"bool","internalType":"bool"}],"stateMutability":"view"},{"type":"function","name":"isMessageSkipped","inputs":[{"name":"_queueIndex","type":"uint256","internalType":"uint256"}],"outputs":[{"name":"","type":"bool","internalType":"bool"}],"stateMutability":"view"},{"type":"function","name":"maxGasLimit","inputs":[],"outputs":[{"name":"","type":"uint256","internalType":"uint256"}],"stateMutability":"view"},{"type":"function","name":"messageQueue","inputs":[{"name":"","type":"uint256","internalType":"uint256"}],"outputs":[{"name":"","type":"bytes32","internalType":"bytes32"}],"stateMutability":"view"},{"type":"function","name":"messenger","inputs":[],"outputs":[{"name":"","type":"address","internalType":"address"}],"stateMutability":"view"},{"type":"function","name":"nextCrossDomainMessageIndex","inputs":[],"outputs":[{"name":"","type":"uint256","internalType":"uint256"}],"stateMutability":"view"},{"type":"function","name":"nextUnfinalizedQueueIndex","inputs":[],"outputs":[{"name":"","type":"uint256","internalType":"uint256"}],"stateMutability":"view"},{"type":"function","name":"owner","inputs":[],"outputs":[{"name":"","type":"address","internalType":"address"}],"stateMutability":"view"},{"type":"function","name":"pendingQueueIndex","inputs":[],"outputs":[{"name":"","type":"uint256","internalType":"uint256"}],"stateMutability":"view"},{"type":"function","name":"popCrossDomainMessage","inputs":[{"name":"_startIndex","type":"uint256","internalType":"uint256"},{"name":"_count","type":"uint256","internalType":"uint256"},{"name":"_skippedBitmap","type":"uint256","internalType":"uint256"}],"outputs":[],"stateMutability":"nonpayable"},{"type":"function","name":"renounceOwnership","inputs":[],"outputs":[],"stateMutability":"nonpayable"},{"type":"function","name":"resetPoppedCrossDomainMessage","inputs":[{"name":"_startIndex","type":"uint256","internalType":"uint256"}],"outputs":[],"stateMutability":"nonpayable"},{"type":"function","name":"scrollChain","inputs":[],"outputs":[{"name":"","type":"address","internalType":"address"}],"stateMutability":"view"},{"type":"function","name":"transferOwnership","inputs":[{"name":"newOwner","type":"address","internalType":"address"}],"outputs":[],"stateMutability":"nonpayable"},{"type":"function","name":"updateGasOracle","inputs":[{"name":"_newGasOracle","type":"address","internalType":"address"}],"outputs":[],"stateMutability":"nonpayable"},{"type":"function","name":"updateMaxGasLimit","inputs":[{"name":"_newMaxGasLimit","type":"uint256","internalType":"uint256"}],"outputs":[],"stateMutability":"nonpayable"},{"type":"event","name":"DequeueTransaction","inputs":[{"name":"startIndex","type":"uint256","indexed":false,"internalType":"uint256"},{"name":"count","type":"uint256","indexed":false,"internalType":"uint256"},{"name":"skippedBitmap","type":"uint256","indexed":false,"internalType":"uint256"}],"anonymous":false},{"type":"event","name":"DropTransaction","inputs":[{"name":"index","type":"uint256","indexed":false,"internalType":"uint256"}],"anonymous":false},{"type":"event","name":"FinalizedDequeuedTransaction","inputs":[{"name":"finalizedIndex","type":"uint256","indexed":false,"internalType":"uint256"}],"anonymous":false},{"type":"event","name":"Initialized","inputs":[{"name":"version","type":"uint8","indexed":false,"internalType":"uint8"}],"anonymous":false},{"type":"event","name":"OwnershipTransferred","inputs":[{"name":"previousOwner","type":"address","indexed":true,"internalType":"address"},{"name":"newOwner","type":"address","indexed":true,"internalType":"address"}],"anonymous":false},{"type":"event","name":"QueueTransaction","inputs":[{"name":"sender","type":"address","indexed":true,"internalType":"address"},{"name":"target","type":"address","indexed":true,"internalType":"address"},{"name":"value","type":"uint256","indexed":false,"internalType":"uint256"},{"name":"queueIndex","type":"uint64","indexed":false,"internalType":"uint64"},{"name":"gasLimit","type":"uint256","indexed":false,"internalType":"uint256"},{"name":"data","type":"bytes","indexed":false,"internalType":"bytes"}],"anonymous":false},{"type":"event","name":"ResetDequeuedTransaction","inputs":[{"name":"startIndex","type":"uint256","indexed":false,"internalType":"uint256"}],"anonymous":false},{"type":"event","name":"UpdateGasOracle","inputs":[{"name":"_oldGasOracle","type":"address","indexed":true,"internalType":"address"},{"name":"_newGasOracle","type":"address","indexed":true,"internalType":"address"}],"anonymous":false},{"type":"event","name":"UpdateMaxGasLimit","inputs":[{"name":"_oldMaxGasLimit","type":"uint256","indexed":false,"internalType":"uint256"},{"name":"_newMaxGasLimit","type":"uint256","indexed":false,"internalType":"uint256"}],"anonymous":false},{"type":"error","name":"ErrorZeroAddress","inputs":[]}],"bytecode":{"object":"0x60e060405234801562000010575f80fd5b5060405162001a8b38038062001a8b833981016040819052620000339162000185565b6001600160a01b03831615806200005157506001600160a01b038216155b806200006457506001600160a01b038116155b15620000835760405163a7f9319d60e01b815260040160405180910390fd5b6200008d620000ab565b6001600160a01b0392831660805290821660a0521660c052620001cc565b5f54610100900460ff1615620001175760405162461bcd60e51b815260206004820152602760248201527f496e697469616c697a61626c653a20636f6e747261637420697320696e697469604482015266616c697a696e6760c81b606482015260840160405180910390fd5b5f5460ff9081161462000167575f805460ff191660ff9081179091556040519081527f7f26b83ff96e1f2b6a682f133852f6798a09c465da95921460cefb38474024989060200160405180910390a15b565b80516001600160a01b038116811462000180575f80fd5b919050565b5f805f6060848603121562000198575f80fd5b620001a38462000169565b9250620001b36020850162000169565b9150620001c36040850162000169565b90509250925092565b60805160a05160c05161186a620002215f395f81816102470152610d9c01525f81816102fa0152818161040b01528181610594015261097101525f81816101e501528181610b3d0152610cf9015261186a5ff3fe608060405234801561000f575f80fd5b50600436106101a1575f3560e01c80637d82191a116100f3578063bdc6f0a011610093578063e172d3a11161006e578063e172d3a1146103a8578063f2fde38b146103bb578063f7013ef6146103ce578063fd0ad31e146103e1575f80fd5b8063bdc6f0a01461036f578063d5ad4a9714610382578063d7704bae14610395575f80fd5b806391652461116100ce578063916524611461032d5780639b15978214610340578063a85006ca14610353578063ae453cd51461035c575f80fd5b80637d82191a146102e2578063897630dd146102f55780638da5cb5b1461031c575f80fd5b806355f613ce1161015e5780635e45da23116101395780635e45da23146102ab57806370cee67f146102b4578063715018a6146102c75780637a6e9333146102cf575f80fd5b806355f613ce146102725780635ad9945a146102855780635d62a8dd14610298575f80fd5b806329aa604b146101a557806338050fd4146101cb5780633cb747bf146101e05780633e6dada11461021f5780633e83496c14610242578063416bdfa114610269575b5f80fd5b6101b86101b336600461143e565b6103e9565b6040519081526020015b60405180910390f35b6101de6101d936600461143e565b610408565b005b6102077f000000000000000000000000000000000000000000000000000000000000000081565b6040516001600160a01b0390911681526020016101c2565b61023261022d36600461143e565b610549565b60405190151581526020016101c2565b6102077f000000000000000000000000000000000000000000000000000000000000000081565b6101b8606e5481565b6101de610280366004611455565b610591565b6101b86102933660046114d9565b610712565b606854610207906001600160a01b031681565b6101b8606b5481565b6101de6102c2366004611555565b610902565b6101de61095b565b6101de6102dd36600461143e565b61096e565b6102326102f036600461143e565b610b07565b6102077f000000000000000000000000000000000000000000000000000000000000000081565b6033546001600160a01b0316610207565b6101de61033b36600461143e565b610b3a565b6101de61034e36600461156e565b610cf6565b6101b8606a5481565b6101b861036a36600461143e565b610d75565b6101de61037d3660046115c4565b610d99565b6101de61039036600461143e565b610e84565b6101b86103a336600461143e565b610eca565b6101b86103b6366004611637565b610f53565b6101de6103c9366004611555565b610fe4565b6101de6103dc366004611676565b61105a565b6069546101b8565b606981815481106103f8575f80fd5b5f91825260209091200154905081565b337f00000000000000000000000000000000000000000000000000000000000000006001600160a01b0316146104595760405162461bcd60e51b8152600401610450906116ce565b60405180910390fd5b606e54808203610467575050565b8082116104b65760405162461bcd60e51b815260206004820152601960248201527f66696e616c697a656420696e64657820746f6f20736d616c6c000000000000006044820152606401610450565b606a548211156105085760405162461bcd60e51b815260206004820152601960248201527f66696e616c697a656420696e64657820746f6f206c61726765000000000000006044820152606401610450565b606e8290556040515f19830181527fbbbf2de085aff601d965315326f9908eb5ebbb3d1b307e7e5ec42384e3320a10906020015b60405180910390a1505b50565b600881901c5f908152606d6020526040812054600160ff84161b161515801561058b5750600882901c5f908152606c6020526040902054600160ff84161b1615155b92915050565b337f00000000000000000000000000000000000000000000000000000000000000006001600160a01b0316146105d95760405162461bcd60e51b8152600401610450906116ce565b6101008211156106235760405162461bcd60e51b8152602060048201526015602482015274706f7020746f6f206d616e79206d6573736167657360581b6044820152606401610450565b82606a541461066b5760405162461bcd60e51b81526020600482015260146024820152730e6e8c2e4e840d2dcc8caf040dad2e6dac2e8c6d60631b6044820152606401610450565b600883901c5f818152606d6020526040902080546001851b5f190193841660ff871681811b9092179092559092919061010081860111156106c357600182015f908152606d6020526040902061010082900385901c90555b505050818301606a5560408051848152602081018490529081018290527fc77f792f838ae38399ac31acc3348389aeb110ce7bedf3cfdbdd5e66792679709060600160405180910390a1505050565b5f607e816107bc565b5f8161072957506001919050565b5b811561073f5760089190911c9060010161072a565b919050565b80608083106001811461077c5761075a8461071b565b60808101835360018301925084816020036008021b835280830192505061079d565b848415166001811461079057848353610795565b608083535b506001820191505b509392505050565b806094815360609290921b60018301525060150190565b600560405101806107cf60018c83610744565b90506107dd60018983610744565b90506107e989826107a5565b90506107f760018b83610744565b9050600186146001811461085f5760388710600181146108445761081a8861071b565b8060b701845360018401935088816020036008021b84528084019350508789843791870191610859565b87608001835360018301925087898437918701915b50610870565b61086d5f89355f1a84610744565b91505b5061087b8c826107a5565b90508181035f8060388310600181146108ae576108978461071b565b60f78101600882021b8517935060010191506108b9565b8360c0019250600191505b5086816008021b821791506001810190508060080292508451831c8284610100031b17915080850394505080845250508181038220925050508092505050979650505050505050565b61090a6111b8565b606880546001600160a01b038381166001600160a01b0319831681179093556040519116919082907f9ed5ec28f252b3e7f62f1ace8e54c5ebabf4c61cc2a7c33a806365b2ff7ecc5e905f90a35050565b6109636111b8565b61096c5f611212565b565b337f00000000000000000000000000000000000000000000000000000000000000006001600160a01b0316146109b65760405162461bcd60e51b8152600401610450906116ce565b606a548082036109c4575050565b606e54821015610a165760405162461bcd60e51b815260206004820152601860248201527f72657365742066696e616c697a6564206d6573736167657300000000000000006044820152606401610450565b808210610a5e5760405162461bcd60e51b815260206004820152601660248201527572657365742070656e64696e67206d6573736167657360501b6044820152606401610450565b600882901c5f818152606d602052604090208054600160ff861690811b5f190190911690915583830391906101008190035b83811015610ace576001929092015f818152606d60205260409020549092908015610ac4575f848152606d60205260408120555b5061010001610a90565b505050606a839055506040518281527fc079f1a662217305bfe03e0a85f03944a2ac422f5ee5431c98b9ef7d3c6226c99060200161053c565b5f606a548210610b1857505f919050565b600882901c5f908152606d6020526040902054600160ff84161b16151561058b565b337f00000000000000000000000000000000000000000000000000000000000000006001600160a01b031614610b825760405162461bcd60e51b815260040161045090611703565b606e548110610bd35760405162461bcd60e51b815260206004820152601b60248201527f63616e6e6f742064726f702070656e64696e67206d65737361676500000000006044820152606401610450565b600881901c5f908152606d6020526040902054600160ff83161b16610c3a5760405162461bcd60e51b815260206004820152601860248201527f64726f70206e6f6e2d736b6970706564206d65737361676500000000000000006044820152606401610450565b600881901c5f908152606c6020526040902054600160ff83161b1615610ca25760405162461bcd60e51b815260206004820152601760248201527f6d65737361676520616c72656164792064726f707065640000000000000000006044820152606401610450565b600881901c5f908152606c602052604090208054600160ff84161b1790556040518181527f43a375005206d20a83abc71722cba68c24434a8dc1f583775be7c3fde0396cbf9060200160405180910390a150565b337f00000000000000000000000000000000000000000000000000000000000000006001600160a01b031614610d3e5760405162461bcd60e51b815260040161045090611703565b610d49838383611263565b3373111100000000000000000000000000000000111101610d6e81865f878787611342565b5050505050565b5f60698281548110610d8957610d89611749565b905f5260205f2001549050919050565b337f00000000000000000000000000000000000000000000000000000000000000006001600160a01b031614610e205760405162461bcd60e51b815260206004820152602660248201527f4f6e6c792063616c6c61626c652062792074686520456e666f7263656454784760448201526561746577617960d01b6064820152608401610450565b6001600160a01b0386163b15610e635760405162461bcd60e51b81526020600482015260086024820152676f6e6c7920454f4160c01b6044820152606401610450565b610e6e838383611263565b610e7c868686868686611342565b505050505050565b610e8c6111b8565b606b80549082905560408051828152602081018490527fa030881e03ff723954dd0d35500564afab9603555d09d4456a32436f2b2373c5910161053c565b6068545f906001600160a01b031680610ee557505f92915050565b604051636bb825d760e11b8152600481018490526001600160a01b0382169063d7704bae90602401602060405180830381865afa158015610f28573d5f803e3d5ffd5b505050506040513d601f19601f82011682018060405250810190610f4c919061175d565b9392505050565b6068545f906001600160a01b031680610f6f575f91505061058b565b60405163e172d3a160e01b81526001600160a01b0382169063e172d3a190610f9d908790879060040161179c565b602060405180830381865afa158015610fb8573d5f803e3d5ffd5b505050506040513d601f19601f82011682018060405250810190610fdc919061175d565b949350505050565b610fec6111b8565b6001600160a01b0381166110515760405162461bcd60e51b815260206004820152602660248201527f4f776e61626c653a206e6577206f776e657220697320746865207a65726f206160448201526564647265737360d01b6064820152608401610450565b61054681611212565b5f54610100900460ff161580801561107857505f54600160ff909116105b806110915750303b15801561109157505f5460ff166001145b6110f45760405162461bcd60e51b815260206004820152602e60248201527f496e697469616c697a61626c653a20636f6e747261637420697320616c72656160448201526d191e481a5b9a5d1a585b1a5e995960921b6064820152608401610450565b5f805460ff191660011790558015611115575f805461ff0019166101001790555b61111d6113e6565b606880546001600160a01b038086166001600160a01b031992831617909255606b849055606580548984169083161790556066805488841690831617905560678054928716929091169190911790558015610e7c575f805461ff0019169055604051600181527f7f26b83ff96e1f2b6a682f133852f6798a09c465da95921460cefb38474024989060200160405180910390a1505050505050565b6033546001600160a01b0316331461096c5760405162461bcd60e51b815260206004820181905260248201527f4f776e61626c653a2063616c6c6572206973206e6f7420746865206f776e65726044820152606401610450565b603380546001600160a01b038381166001600160a01b0319831681179093556040519116919082907f8be0079c531659141344cd1fd0a4f28419497f9722a3daafe3b4186f6b6457e0905f90a35050565b606b548311156112c35760405162461bcd60e51b815260206004820152602560248201527f476173206c696d6974206d757374206e6f7420657863656564206d6178476173604482015264131a5b5a5d60da1b6064820152608401610450565b5f6112ce8383610f53565b90508084101561133c5760405162461bcd60e51b815260206004820152603360248201527f496e73756666696369656e7420676173206c696d69742c206d7573742062652060448201527261626f766520696e7472696e7369632067617360681b6064820152608401610450565b50505050565b6069545f6113558883888a898989610712565b606980546001810182555f919091527f7fb4302e8e91f9110a6554c2c0a24601252c2a42c2220ca988efcfe399914308018190556040519091506001600160a01b0380891691908a16907f69cfcb8e6d4192b8aba9902243912587f37e550d75c1fa801491fce26717f37e906113d4908a9087908b908b908b906117af565b60405180910390a35050505050505050565b5f54610100900460ff1661140c5760405162461bcd60e51b8152600401610450906117e9565b61096c5f54610100900460ff166114355760405162461bcd60e51b8152600401610450906117e9565b61096c33611212565b5f6020828403121561144e575f80fd5b5035919050565b5f805f60608486031215611467575f80fd5b505081359360208301359350604090920135919050565b80356001600160a01b038116811461073f575f80fd5b5f8083601f8401126114a4575f80fd5b50813567ffffffffffffffff8111156114bb575f80fd5b6020830191508360208285010111156114d2575f80fd5b9250929050565b5f805f805f805f60c0888a0312156114ef575f80fd5b6114f88861147e565b965060208801359550604088013594506115146060890161147e565b93506080880135925060a088013567ffffffffffffffff811115611536575f80fd5b6115428a828b01611494565b989b979a50959850939692959293505050565b5f60208284031215611565575f80fd5b610f4c8261147e565b5f805f8060608587031215611581575f80fd5b61158a8561147e565b935060208501359250604085013567ffffffffffffffff8111156115ac575f80fd5b6115b887828801611494565b95989497509550505050565b5f805f805f8060a087890312156115d9575f80fd5b6115e28761147e565b95506115f06020880161147e565b94506040870135935060608701359250608087013567ffffffffffffffff811115611619575f80fd5b61162589828a01611494565b979a9699509497509295939492505050565b5f8060208385031215611648575f80fd5b823567ffffffffffffffff81111561165e575f80fd5b61166a85828601611494565b90969095509350505050565b5f805f805f60a0868803121561168a575f80fd5b6116938661147e565b94506116a16020870161147e565b93506116af6040870161147e565b92506116bd6060870161147e565b949793965091946080013592915050565b6020808252818101527f4f6e6c792063616c6c61626c6520627920746865205363726f6c6c436861696e604082015260600190565b60208082526026908201527f4f6e6c792063616c6c61626c6520627920746865204c315363726f6c6c4d657360408201526539b2b733b2b960d11b606082015260800190565b634e487b7160e01b5f52603260045260245ffd5b5f6020828403121561176d575f80fd5b5051919050565b81835281816020850137505f828201602090810191909152601f909101601f19169091010190565b602081525f610fdc602083018486611774565b85815267ffffffffffffffff85166020820152836040820152608060608201525f6117de608083018486611774565b979650505050505050565b6020808252602b908201527f496e697469616c697a61626c653a20636f6e7472616374206973206e6f74206960408201526a6e697469616c697a696e6760a81b60608201526080019056fea2646970667358221220293b6f6ae4f4e900a0a2323be4613ef3d6e2f0f35eebef4f12f0b6cb4eb773b864736f6c63430008180033","linkReferences":{}},"methodIdentifiers":{"appendCrossDomainMessage(address,uint256,bytes)":"9b159782","appendEnforcedTransaction(address,address,uint256,uint256,bytes)":"bdc6f0a0","calculateIntrinsicGasFee(bytes)":"e172d3a1","computeTransactionHash(address,uint256,uint256,address,uint256,bytes)":"5ad9945a","dropCrossDomainMessage(uint256)":"91652461","enforcedTxGateway()":"3e83496c","estimateCrossDomainMessageFee(uint256)":"d7704bae","finalizePoppedCrossDomainMessage(uint256)":"38050fd4","gasOracle()":"5d62a8dd","getCrossDomainMessage(uint256)":"ae453cd5","initialize(address,address,address,address,uint256)":"f7013ef6","isMessageDropped(uint256)":"3e6dada1","isMessageSkipped(uint256)":"7d82191a","maxGasLimit()":"5e45da23","messageQueue(uint256)":"29aa604b","messenger()":"3cb747bf","nextCrossDomainMessageIndex()":"fd0ad31e","nextUnfinalizedQueueIndex()":"416bdfa1","owner()":"8da5cb5b","pendingQueueIndex()":"a85006ca","popCrossDomainMessage(uint256,uint256,uint256)":"55f613ce","renounceOwnership()":"715018a6","resetPoppedCrossDomainMessage(uint256)":"7a6e9333","scrollChain()":"897630dd","transferOwnership(address)":"f2fde38b","updateGasOracle(address)":"70cee67f","updateMaxGasLimit(uint256)":"d5ad4a97"},"id":158}