{"abi":[{"type":"constructor","inputs":[{"name":"_chainId","type":"uint64","internalType":"uint64"},{"name":"_messageQueue","type":"address","internalType":"address"},{"name":"_verifier","type":"address","internalType":"address"}],"stateMutability":"nonpayable"},{"type":"function","name":"addProver","inputs":[{"name":"_account","type":"address","internalType":"address"}],"outputs":[],"stateMutability":"nonpayable"},{"type":"function","name":"addSequencer","inputs":[{"name":"_account","type":"address","internalType":"address"}],"outputs":[],"stateMutability":"nonpayable"},{"type":"function","name":"commitBatch","inputs":[{"name":"_version","type":"uint8","internalType":"uint8"},{"name":"_parentBatchHeader","type":"bytes","internalType":"bytes"},{"name":"_chunks","type":"bytes[]","internalType":"bytes[]"},{"name":"_skippedL1MessageBitmap","type":"bytes","internalType":"bytes"}],"outputs":[],"stateMutability":"nonpayable"},{"type":"function","name":"commitBatchWithBlobProof","inputs":[{"name":"_version","type":"uint8","internalType":"uint8"},{"name":"_parentBatchHeader","type":"bytes","internalType":"bytes"},{"name":"_chunks","type":"bytes[]","internalType":"bytes[]"},{"name":"_skippedL1MessageBitmap","type":"bytes","internalType":"bytes"},{"name":"_blobDataProof","type":"bytes","internalType":"bytes"}],"outputs":[],"stateMutability":"nonpayable"},{"type":"function","name":"committedBatches","inputs":[{"name":"","type":"uint256","internalType":"uint256"}],"outputs":[{"name":"","type":"bytes32","internalType":"bytes32"}],"stateMutability":"view"},{"type":"function","name":"finalizeBatchWithProof4844","inputs":[{"name":"_batchHeader","type":"bytes","internalType":"bytes"},{"name":"","type":"bytes32","internalType":"bytes32"},{"name":"_postStateRoot","type":"bytes32","internalType":"bytes32"},{"name":"_withdrawRoot","type":"bytes32","internalType":"bytes32"},{"name":"_blobDataProof","type":"bytes","internalType":"bytes"},{"name":"_aggrProof","type":"bytes","internalType":"bytes"}],"outputs":[],"stateMutability":"nonpayable"},{"type":"function","name":"finalizeBundleWithProof","inputs":[{"name":"_batchHeader","type":"bytes","internalType":"bytes"},{"name":"_postStateRoot","type":"bytes32","internalType":"bytes32"},{"name":"_withdrawRoot","type":"bytes32","internalType":"bytes32"},{"name":"_aggrProof","type":"bytes","internalType":"bytes"}],"outputs":[],"stateMutability":"nonpayable"},{"type":"function","name":"finalizedStateRoots","inputs":[{"name":"","type":"uint256","internalType":"uint256"}],"outputs":[{"name":"","type":"bytes32","internalType":"bytes32"}],"stateMutability":"view"},{"type":"function","name":"importGenesisBatch","inputs":[{"name":"_batchHeader","type":"bytes","internalType":"bytes"},{"name":"_stateRoot","type":"bytes32","internalType":"bytes32"}],"outputs":[],"stateMutability":"nonpayable"},{"type":"function","name":"initialize","inputs":[{"name":"_messageQueue","type":"address","internalType":"address"},{"name":"_verifier","type":"address","internalType":"address"},{"name":"_maxNumTxInChunk","type":"uint256","internalType":"uint256"}],"outputs":[],"stateMutability":"nonpayable"},{"type":"function","name":"isBatchFinalized","inputs":[{"name":"_batchIndex","type":"uint256","internalType":"uint256"}],"outputs":[{"name":"","type":"bool","internalType":"bool"}],"stateMutability":"view"},{"type":"function","name":"isProver","inputs":[{"name":"","type":"address","internalType":"address"}],"outputs":[{"name":"","type":"bool","internalType":"bool"}],"stateMutability":"view"},{"type":"function","name":"isSequencer","inputs":[{"name":"","type":"address","internalType":"address"}],"outputs":[{"name":"","type":"bool","internalType":"bool"}],"stateMutability":"view"},{"type":"function","name":"lastFinalizedBatchIndex","inputs":[],"outputs":[{"name":"","type":"uint256","internalType":"uint256"}],"stateMutability":"view"},{"type":"function","name":"layer2ChainId","inputs":[],"outputs":[{"name":"","type":"uint64","internalType":"uint64"}],"stateMutability":"view"},{"type":"function","name":"maxNumTxInChunk","inputs":[],"outputs":[{"name":"","type":"uint256","internalType":"uint256"}],"stateMutability":"view"},{"type":"function","name":"messageQueue","inputs":[],"outputs":[{"name":"","type":"address","internalType":"address"}],"stateMutability":"view"},{"type":"function","name":"owner","inputs":[],"outputs":[{"name":"","type":"address","internalType":"address"}],"stateMutability":"view"},{"type":"function","name":"paused","inputs":[],"outputs":[{"name":"","type":"bool","internalType":"bool"}],"stateMutability":"view"},{"type":"function","name":"removeProver","inputs":[{"name":"_account","type":"address","internalType":"address"}],"outputs":[],"stateMutability":"nonpayable"},{"type":"function","name":"removeSequencer","inputs":[{"name":"_account","type":"address","internalType":"address"}],"outputs":[],"stateMutability":"nonpayable"},{"type":"function","name":"renounceOwnership","inputs":[],"outputs":[],"stateMutability":"nonpayable"},{"type":"function","name":"revertBatch","inputs":[{"name":"_firstBatchHeader","type":"bytes","internalType":"bytes"},{"name":"_lastBatchHeader","type":"bytes","internalType":"bytes"}],"outputs":[],"stateMutability":"nonpayable"},{"type":"function","name":"setPause","inputs":[{"name":"_status","type":"bool","internalType":"bool"}],"outputs":[],"stateMutability":"nonpayable"},{"type":"function","name":"transferOwnership","inputs":[{"name":"newOwner","type":"address","internalType":"address"}],"outputs":[],"stateMutability":"nonpayable"},{"type":"function","name":"updateMaxNumTxInChunk","inputs":[{"name":"_maxNumTxInChunk","type":"uint256","internalType":"uint256"}],"outputs":[],"stateMutability":"nonpayable"},{"type":"function","name":"verifier","inputs":[],"outputs":[{"name":"","type":"address","internalType":"address"}],"stateMutability":"view"},{"type":"function","name":"withdrawRoots","inputs":[{"name":"","type":"uint256","internalType":"uint256"}],"outputs":[{"name":"","type":"bytes32","internalType":"bytes32"}],"stateMutability":"view"},{"type":"event","name":"CommitBatch","inputs":[{"name":"batchIndex","type":"uint256","indexed":true,"internalType":"uint256"},{"name":"batchHash","type":"bytes32","indexed":true,"internalType":"bytes32"}],"anonymous":false},{"type":"event","name":"FinalizeBatch","inputs":[{"name":"batchIndex","type":"uint256","indexed":true,"internalType":"uint256"},{"name":"batchHash","type":"bytes32","indexed":true,"internalType":"bytes32"},{"name":"stateRoot","type":"bytes32","indexed":false,"internalType":"bytes32"},{"name":"withdrawRoot","type":"bytes32","indexed":false,"internalType":"bytes32"}],"anonymous":false},{"type":"event","name":"Initialized","inputs":[{"name":"version","type":"uint8","indexed":false,"internalType":"uint8"}],"anonymous":false},{"type":"event","name":"OwnershipTransferred","inputs":[{"name":"previousOwner","type":"address","indexed":true,"internalType":"address"},{"name":"newOwner","type":"address","indexed":true,"internalType":"address"}],"anonymous":false},{"type":"event","name":"Paused","inputs":[{"name":"account","type":"address","indexed":false,"internalType":"address"}],"anonymous":false},{"type":"event","name":"RevertBatch","inputs":[{"name":"batchIndex","type":"uint256","indexed":true,"internalType":"uint256"},{"name":"batchHash","type":"bytes32","indexed":true,"internalType":"bytes32"}],"anonymous":false},{"type":"event","name":"Unpaused","inputs":[{"name":"account","type":"address","indexed":false,"internalType":"address"}],"anonymous":false},{"type":"event","name":"UpdateMaxNumTxInChunk","inputs":[{"name":"oldMaxNumTxInChunk","type":"uint256","indexed":false,"internalType":"uint256"},{"name":"newMaxNumTxInChunk","type":"uint256","indexed":false,"internalType":"uint256"}],"anonymous":false},{"type":"event","name":"UpdateProver","inputs":[{"name":"account","type":"address","indexed":true,"internalType":"address"},{"name":"status","type":"bool","indexed":false,"internalType":"bool"}],"anonymous":false},{"type":"event","name":"UpdateSequencer","inputs":[{"name":"account","type":"address","indexed":true,"internalType":"address"},{"name":"status","type":"bool","indexed":false,"internalType":"bool"}],"anonymous":false},{"type":"error","name":"ErrorAccountIsNotEOA","inputs":[]},{"type":"error","name":"ErrorBatchHeaderV0LengthTooSmall","inputs":[]},{"type":"error","name":"ErrorBatchHeaderV1LengthTooSmall","inputs":[]},{"type":"error","name":"ErrorBatchHeaderV3LengthMismatch","inputs":[]},{"type":"error","name":"ErrorBatchIsAlreadyCommitted","inputs":[]},{"type":"error","name":"ErrorBatchIsAlreadyVerified","inputs":[]},{"type":"error","name":"ErrorBatchIsEmpty","inputs":[]},{"type":"error","name":"ErrorCallPointEvaluationPrecompileFailed","inputs":[]},{"type":"error","name":"ErrorCallerIsNotProver","inputs":[]},{"type":"error","name":"ErrorCallerIsNotSequencer","inputs":[]},{"type":"error","name":"ErrorFoundMultipleBlobs","inputs":[]},{"type":"error","name":"ErrorGenesisBatchHasNonZeroField","inputs":[]},{"type":"error","name":"ErrorGenesisBatchImported","inputs":[]},{"type":"error","name":"ErrorGenesisDataHashIsZero","inputs":[]},{"type":"error","name":"ErrorGenesisParentBatchHashIsNonZero","inputs":[]},{"type":"error","name":"ErrorIncompleteL2TransactionData","inputs":[]},{"type":"error","name":"ErrorIncorrectBatchHash","inputs":[]},{"type":"error","name":"ErrorIncorrectBatchIndex","inputs":[]},{"type":"error","name":"ErrorIncorrectBatchVersion","inputs":[]},{"type":"error","name":"ErrorIncorrectBitmapLength","inputs":[]},{"type":"error","name":"ErrorIncorrectBitmapLengthV0","inputs":[]},{"type":"error","name":"ErrorIncorrectBitmapLengthV1","inputs":[]},{"type":"error","name":"ErrorIncorrectChunkLengthV1","inputs":[]},{"type":"error","name":"ErrorLastL1MessageSkipped","inputs":[]},{"type":"error","name":"ErrorNoBlobFound","inputs":[]},{"type":"error","name":"ErrorNoBlockInChunkV1","inputs":[]},{"type":"error","name":"ErrorNumTxsLessThanNumL1Msgs","inputs":[]},{"type":"error","name":"ErrorRevertFinalizedBatch","inputs":[]},{"type":"error","name":"ErrorRevertNotStartFromEnd","inputs":[]},{"type":"error","name":"ErrorRevertZeroBatches","inputs":[]},{"type":"error","name":"ErrorStateRootIsZero","inputs":[]},{"type":"error","name":"ErrorTooManyTxsInOneChunk","inputs":[]},{"type":"error","name":"ErrorUnexpectedPointEvaluationPrecompileOutput","inputs":[]},{"type":"error","name":"ErrorZeroAddress","inputs":[]}],"bytecode":{"object":"0x60e060405234801562000010575f80fd5b50604051620029953803806200299583398101604081905262000033916200017a565b6001600160a01b03821615806200005157506001600160a01b038116155b15620000705760405163a7f9319d60e01b815260040160405180910390fd5b6200007a620000a0565b6001600160401b039092166080526001600160a01b0390811660a0521660c052620001cd565b5f54610100900460ff16156200010c5760405162461bcd60e51b815260206004820152602760248201527f496e697469616c697a61626c653a20636f6e747261637420697320696e697469604482015266616c697a696e6760c81b606482015260840160405180910390fd5b5f5460ff908116146200015c575f805460ff191660ff9081179091556040519081527f7f26b83ff96e1f2b6a682f133852f6798a09c465da95921460cefb38474024989060200160405180910390a15b565b80516001600160a01b038116811462000175575f80fd5b919050565b5f805f606084860312156200018d575f80fd5b83516001600160401b0381168114620001a4575f80fd5b9250620001b4602085016200015e565b9150620001c4604085016200015e565b90509250925092565b60805160a05160c051612765620002305f395f8181610306015281816105a30152610d1b01525f818161034501528181610f7d0152818161186901528181611a1e0152611e1c01525f81816101d8015281816105140152610c5101526127655ff3fe608060405234801561000f575f80fd5b50600436106101ba575f3560e01c80634f099e3d116100f35780638a33623111610093578063bedb86fb1161006e578063bedb86fb14610432578063ea5f084f14610445578063ef6602ba14610464578063f2fde38b1461046d575f80fd5b80638a336231146103fb5780638da5cb5b1461040e578063b571d3dd1461041f575f80fd5b80636d46e987116100ce5780636d46e987146103ab5780636df4e686146103cd578063715018a6146103e057806386b053a9146103e8575f80fd5b80634f099e3d1461037a5780635c975abb1461038d5780636989ca7c14610398575f80fd5b80631d49e4571161015e5780632571098d116101395780632571098d146102e25780632b7ac3f3146103015780633b70c18a146103405780633fdeecb214610367575f80fd5b80631d49e4571461029d5780631e228302146102b05780632362f03e146102c3575f80fd5b80630a245924116101995780630a2459241461022f578063116a1f42146102615780631325aca0146102775780631794bb3c1461028a575f80fd5b8062b0f4d7146101be57806303c7f4af146101d3578063059def6114610218575b5f80fd5b6101d16101cc366004611fb5565b610480565b005b6101fa7f000000000000000000000000000000000000000000000000000000000000000081565b60405167ffffffffffffffff90911681526020015b60405180910390f35b610221609c5481565b60405190815260200161020f565b61025161023d366004612080565b609b6020525f908152604090205460ff1681565b604051901515815260200161020f565b61025161026f3660046120a0565b609c54101590565b6101d16102853660046121f8565b610656565b6101d1610298366004612296565b61078b565b6101d16102ab366004612080565b61090c565b6101d16102be3660046120a0565b61099a565b6102216102d13660046120a0565b609d6020525f908152604090205481565b6102216102f03660046120a0565b609e6020525f908152604090205481565b6103287f000000000000000000000000000000000000000000000000000000000000000081565b6040516001600160a01b03909116815260200161020f565b6103287f000000000000000000000000000000000000000000000000000000000000000081565b6101d16103753660046122cf565b6109e7565b6101d1610388366004612317565b610bbe565b60655460ff16610251565b6101d16103a6366004612080565b610dfb565b6102516103b9366004612080565b609a6020525f908152604090205460ff1681565b6101d16103db366004612375565b610e51565b6101d1610fd8565b6101d16103f63660046123dc565b610feb565b6101d1610409366004612080565b611162565b6033546001600160a01b0316610328565b6101d161042d366004612080565b6111e9565b6101d16104403660046124a2565b61123f565b6102216104533660046120a0565b609f6020525f908152604090205481565b61022160975481565b6101d161047b366004612080565b611260565b335f908152609b602052604090205460ff166104af57604051637b263b1760e01b815260040160405180910390fd5b6104b76112d6565b5f805f6104c58c8c8b61131c565b9250925092505f806104d8856019015190565b90505f6104e6866039015190565b90505f609e816104f76001886124d5565b81526020019081526020015f20549050610512828c8c611385565b7f0000000000000000000000000000000000000000000000000000000000000000818e8e868f8f5f9060409261054a939291906124e8565b8860405160200161056298979695949392919061250f565b6040516020818303038152906040528051906020012093505050505f610589855160f81c90565b604051630581350960e31b81529091506001600160a01b037f00000000000000000000000000000000000000000000000000000000000000001690632c09a848906105e090849087908c908c90899060040161257e565b5f6040518083038186803b1580156105f6575f80fd5b505afa158015610608573d5f803e3d5ffd5b505050505f61061b866011015160c01c90565b90506106386079870182610633896009015160c01c90565b611481565b6106458185878f8f61149e565b505050505050505050505050505050565b335f908152609a602052604090205460ff1661068557604051631e6edd6f60e11b815260040160405180910390fd5b61068d6112d6565b5f805f61069b888888611528565b9250925092505f805f808c60ff166001111580156106bd575060028d60ff1611155b1561074c576106ce858b8b8b611590565b60405196810196945090925090506106e98360ff8f16611608565b60c086811b600185015281811b600985015285901b60118401526019830182905261071f8361071661160f565b60399190910152565b60598301879052610731838a8a611655565b610745836107408a60796125af565b902090565b9350610765565b60405163bacd96e960e01b815260040160405180910390fd5b61077285828b8b5f611661565b61077c86856116a4565b50505050505050505050505050565b5f54610100900460ff16158080156107a957505f54600160ff909116105b806107c25750303b1580156107c257505f5460ff166001145b61082a5760405162461bcd60e51b815260206004820152602e60248201527f496e697469616c697a61626c653a20636f6e747261637420697320616c72656160448201526d191e481a5b9a5d1a585b1a5e995960921b60648201526084015b60405180910390fd5b5f805460ff19166001179055801561084b575f805461ff0019166101001790555b6108536116e2565b6097829055609980546001600160a01b038581166001600160a01b0319928316179092556098805492871692909116919091179055604080515f8152602081018490527f6d0f49971e462a2f78a25906f145cb29cd5e7bd01ebf681ac8f58cb814e5877a910160405180910390a18015610906575f805461ff0019169055604051600181527f7f26b83ff96e1f2b6a682f133852f6798a09c465da95921460cefb38474024989060200160405180910390a15b50505050565b610914611710565b6001600160a01b0381163b1561093d57604051632c0fc2e160e11b815260040160405180910390fd5b6001600160a01b0381165f818152609b6020908152604091829020805460ff1916600190811790915591519182527f967f99d5d403870e4356ff46556df3a6b6ba1f50146639aaedfb9f248eb8661e91015b60405180910390a250565b6109a2611710565b609780549082905560408051828152602081018490527f6d0f49971e462a2f78a25906f145cb29cd5e7bd01ebf681ac8f58cb814e5877a910160405180910390a15050565b80610a055760405163f9a9465f60e01b815260040160405180910390fd5b5f8052609e6020527fedae58bba15aea52a58242ef195db2cc4de2b75de265dbb0d58482df22a959785415610a4d5760405163c22a199f60e01b815260040160405180910390fd5b5f80610a59858561176a565b5050915091505f610a6e836011015160c01c90565b600984015160c01c600185015160c01c855160f81c01010190508015610aa75760405163f4f38de560e01b815260040160405180910390fd5b505f610ab4836019015190565b03610ad2576040516303d840a960e41b815260040160405180910390fd5b5f610ade836039015190565b14610afc57604051632781461960e11b815260040160405180910390fd5b5f8080527fc5dc36ae4e7617e4c4d23ddfcde33c79e9ed64c300aed766a9288a6b9b31f63d829055609e6020527fedae58bba15aea52a58242ef195db2cc4de2b75de265dbb0d58482df22a959788490556040518291907f2c32d4ae151744d0bf0b9464a3e897a1d17ed2f1af71f7c9a75f12ce0d28238f908290a3604080518481525f60208201819052839290917f26ba82f907317eedc97d0cbef23de76a43dd6edb563bdb6e9407645b950a7a2d91015b60405180910390a35050505050565b335f908152609b602052604090205460ff16610bed57604051637b263b1760e01b815260040160405180910390fd5b610bf56112d6565b83610c135760405163f9a9465f60e01b815260040160405180910390fd5b5f805f80610c218a8a61176a565b609c5493975091955093509150808311610c4e5760405163092d315560e41b815260040160405180910390fd5b5f7f0000000000000000000000000000000000000000000000000000000000000000610c7a83866124d5565b5f848152609e6020908152604080832054609d83529281902054905160c09590951b6001600160c01b0319169185019190915260e09290921b6001600160e01b0319166028840152602c830152604c820152606c81018b9052608c810186905260ac81018a905260cc0160405160208183030381529060405290505f610d01875160f81c90565b6040516322a262c960e01b81529091506001600160a01b037f000000000000000000000000000000000000000000000000000000000000000016906322a262c990610d5890849089908e908e9089906004016125e4565b5f6040518083038186803b158015610d6e575f80fd5b505afa158015610d80573d5f803e3d5ffd5b505050609c869055505f858152609e602090815260408083208e9055609f90915290208a9055610daf8461184d565b604080518c8152602081018c9052879187917f26ba82f907317eedc97d0cbef23de76a43dd6edb563bdb6e9407645b950a7a2d910160405180910390a350505050505050505050505050565b610e03611710565b6001600160a01b0381165f818152609a60209081526040808320805460ff19169055519182527f631cb110fbe6a87fba5414d6b2cff02264480535cd1f5abdbc4fa638bc0b5692910161098f565b610e59611710565b5f805f610e66878761176a565b935093505092505f610e78868661176a565b509250505080831115610e9e57604051635453822b60e11b815260040160405180910390fd5b5f609d81610ead8460016125af565b81526020019081526020015f205414610ed957604051633f707d7d60e21b815260040160405180910390fd5b609c548311610efb57604051632ad7756360e11b815260040160405180910390fd5b805b838110610f53575f818152609d602052604080822080549083905590519091829184917ecae2739091badfd91c373f0a16cede691e0cd25bb80cff77dd5caeb471014691a350610f4c81612637565b9050610efd565b505f610f63856009015160c01c90565b604051637a6e933360e01b815281850360048201529091507f00000000000000000000000000000000000000000000000000000000000000006001600160a01b031690637a6e9333906024015f604051808303815f87803b158015610fc6575f80fd5b505af115801561077c573d5f803e3d5ffd5b610fe0611710565b610fe95f6118c4565b565b335f908152609a602052604090205460ff1661101a57604051631e6edd6f60e11b815260040160405180910390fd5b6110226112d6565b60028860ff16116110465760405163bacd96e960e01b815260040160405180910390fd5b6040805160c1810190915261105e8160ff8b16611608565b5f805f61106c8b8b8b611528565b60c082901b6001880152919450925090505f8061108b838c8c8c611590565b9150915080830192506110a283828c8c6001611661565b60c081811b600988015283901b6011870152601986018290525f6110c461160f565b90506110d1818a8a611385565b60398701819052605987018690525f808d60018f516110f091906124d5565b815181106111005761110061264c565b6020908102919091018101519081015160f81c603c028101601219015190915060c01c60c081901b60798b015291506111369050565b611141888b8b611915565b60c1882061114f87826116a4565b5050505050505050505050505050505050565b61116a611710565b6001600160a01b0381163b1561119357604051632c0fc2e160e11b815260040160405180910390fd5b6001600160a01b0381165f818152609a6020908152604091829020805460ff1916600190811790915591519182527f631cb110fbe6a87fba5414d6b2cff02264480535cd1f5abdbc4fa638bc0b5692910161098f565b6111f1611710565b6001600160a01b0381165f818152609b60209081526040808320805460ff19169055519182527f967f99d5d403870e4356ff46556df3a6b6ba1f50146639aaedfb9f248eb8661e910161098f565b611247611710565b801561125857611255611922565b50565b61125561197c565b611268611710565b6001600160a01b0381166112cd5760405162461bcd60e51b815260206004820152602660248201527f4f776e61626c653a206e6577206f776e657220697320746865207a65726f206160448201526564647265737360d01b6064820152608401610821565b611255816118c4565b60655460ff1615610fe95760405162461bcd60e51b815260206004820152601060248201526f14185d5cd8589b194e881c185d5cd95960821b6044820152606401610821565b5f80808361133d5760405163f9a9465f60e01b815260040160405180910390fd5b611347868661176a565b505f818152609e602052604090205492955090935091501561137c5760405163092d315560e41b815260040160405180910390fd5b93509350939050565b5f80600a6001600160a01b03168585856040516020016113a793929190612660565b60408051601f19818403018152908290526113c191612679565b5f60405180830381855afa9150503d805f81146113f9576040519150601f19603f3d011682016040523d82523d5f602084013e6113fe565b606091505b509150915081611421576040516371ebedf560e01b815260040160405180910390fd5b5f818060200190518101906114369190612694565b9150507f73eda753299d7d483339d80809a1d80553bda402fffe5bfeffffffff00000001811461147957604051638a89514360e01b815260040160405180910390fd5b505050505050565b805f0361148d57505050565b6114995f8484846119b5565b505050565b83609c54600101146114c357604051631d17cec760e21b815260040160405180910390fd5b609c8490555f848152609e60209081526040808320859055609f90915290208190556114ee8561184d565b6040805183815260208101839052849186917f26ba82f907317eedc97d0cbef23de76a43dd6edb563bdb6e9407645b950a7a2d9101610baf565b5f805f83515f0361154c57604051632974c17360e21b815260040160405180910390fd5b611556868661176a565b60019091015f818152609d60205260409020549296509450925015905061137c5760405163012137ab60e41b815260040160405180910390fd5b8251604080516020830281019091525f918291825b828110156115f1575f806115d58a84815181106115c4576115c461264c565b6020026020010151878d8c8c611a9a565b9085529a8b019a959095019450506020909101906001016115a5565b506020919091029081900320969095509350505050565b8082535050565b5f496001498161163257604051630168f63160e21b815260040160405180910390fd5b801561165157604051634c976a6160e11b815260040160405180910390fd5b5090565b80826079850137505050565b8161010060ff8601046020021461168b57604051630808452960e31b815260040160405180910390fd5b801561169d5761169d83838787611bd2565b5050505050565b5f828152609d602052604080822083905551829184917f2c32d4ae151744d0bf0b9464a3e897a1d17ed2f1af71f7c9a75f12ce0d28238f9190a35050565b5f54610100900460ff166117085760405162461bcd60e51b8152600401610821906126b6565b610fe9611be6565b6033546001600160a01b03163314610fe95760405162461bcd60e51b815260206004820181905260248201527f4f776e61626c653a2063616c6c6572206973206e6f7420746865206f776e65726044820152606401610821565b5f808080853560f81c8181810361178f576117858888611c15565b90965090506117b9565b600282116117a1576117858888611c8e565b600382106117b9576117b38888611cff565b90965090505b80862094506117cc866001015160c01c90565b93506117dc866011015160c01c90565b5f858152609d6020526040902054909350851480159061182457505f8052609e6020527fedae58bba15aea52a58242ef195db2cc4de2b75de265dbb0d58482df22a959785415155b156118425760405163150e0a2160e11b815260040160405180910390fd5b505092959194509250565b801561125557604051630e0143f560e21b8152600481018290527f00000000000000000000000000000000000000000000000000000000000000006001600160a01b0316906338050fd4906024015f604051808303815f87803b1580156118b2575f80fd5b505af115801561169d573d5f803e3d5ffd5b603380546001600160a01b038381166001600160a01b0319831681179093556040519116919082907f8be0079c531659141344cd1fd0a4f28419497f9722a3daafe3b4186f6b6457e0905f90a35050565b6040826081850137505050565b61192a6112d6565b6065805460ff191660011790557f62e78cea01bee320cd4e420270b5ea74000d11b0c9f74754ebdbfc544b05a25861195f3390565b6040516001600160a01b03909116815260200160405180910390a1565b611984611d38565b6065805460ff191690557f5db9ee0a495bf2e6ff9c91a7834c1ba4fdd244a5e8aa4e537bd38aeae4b073aa3361195f565b8015610906578082035f805b83811015611a91576101008185038111156119db57508084035b87600181146119ed57875193506119f2565b873593505b50604051632afb09e760e11b8152600481018590526024810182905260448101849052602097909701967f00000000000000000000000000000000000000000000000000000000000000006001600160a01b0316906355f613ce906064015f604051808303815f87803b158015611a67575f80fd5b505af1158015611a79573d5f803e3d5ffd5b505050506101008401935050610100810190506119c1565b50505050505050565b60405185515f91829160208901919081908490611ab8908590611d81565b90505f5b81811015611b0d57611acf858483611de8565b92505f611add603c83612701565b611ae88760016125af565b611af291906125af565b90505f611afe82611dfc565b97909701965050600101611abc565b506020850282016040526001840193505f5b8115611b9a575f611b2f86611dfc565b905083611b4081838f8f8f8f611e0b565b94505f611b4c88611f3a565b905082811015611b6f57604051638c5a4ea360e01b815260040160405180910390fd5b9c82019c9b82019b603c97909701965f19949094019360209186039190910492909201910301611b1f565b609754811115611bbd57604051634d56f17560e01b815260040160405180910390fd5b50508190039020989197509095505050505050565b8015610906578361169d60018285856119b5565b5f54610100900460ff16611c0c5760405162461bcd60e51b8152600401610821906126b6565b610fe9336118c4565b5f816059811015611c395760405163027f9c1f60e11b815260040160405180910390fd5b6040519150808483378082016040525f611c57836009015160c01c90565b905061010060ff8201046020026059018214611c865760405163c2110c9b60e01b815260040160405180910390fd5b509250929050565b5f816079811015611cb25760405163a40ab48b60e01b815260040160405180910390fd5b6040519150808483378082016040525f611cd0836009015160c01c90565b905061010060ff8201046020026079018214611c8657604051630c1c91df60e21b815260040160405180910390fd5b5f8160c18114611d22576040516332496bf560e21b815260040160405180910390fd5b6040519150808483378082016040529250929050565b60655460ff16610fe95760405162461bcd60e51b815260206004820152601460248201527314185d5cd8589b194e881b9bdd081c185d5cd95960621b6044820152606401610821565b5f611d8b83611f49565b9050805f03611dad57604051634dbe8cff60e01b815260040160405180910390fd5b611db8603c82612701565b611dc39060016125af565b8214611de257604051634edcb40160e11b815260040160405180910390fd5b92915050565b5f611df4848484611f55565b949350505050565b5f611de282603a015160f01c90565b5f855f03611e1a575085611f30565b7f00000000000000000000000000000000000000000000000000000000000000005f80805b89811015611efc5760ff89169150600889901c811580611e5d575082155b15611e6c578060200288013593505b600184841c165f03611eeb5760405163ae453cd560e01b8152600481018a90525f906001600160a01b0387169063ae453cd590602401602060405180830381865afa158015611ebd573d5f803e3d5ffd5b505050506040513d601f19601f82011682018060405250810190611ee19190612718565b8d52506020909b019a5b506001988901989788019701611e3f565b505060ff5f1988011681811c60011615611f2957604051632eba9e1160e21b815260040160405180910390fd5b5050879150505b9695505050505050565b5f611de2826038015160f01c90565b5f611de2825160f81c90565b5f81603c0260010184019350603a84845e5050603a01919050565b5f8083601f840112611f80575f80fd5b50813567ffffffffffffffff811115611f97575f80fd5b602083019150836020828501011115611fae575f80fd5b9250929050565b5f805f805f805f805f60c08a8c031215611fcd575f80fd5b893567ffffffffffffffff80821115611fe4575f80fd5b611ff08d838e01611f70565b909b50995060208c0135985060408c0135975060608c0135965060808c013591508082111561201d575f80fd5b6120298d838e01611f70565b909650945060a08c0135915080821115612041575f80fd5b5061204e8c828d01611f70565b915080935050809150509295985092959850929598565b80356001600160a01b038116811461207b575f80fd5b919050565b5f60208284031215612090575f80fd5b61209982612065565b9392505050565b5f602082840312156120b0575f80fd5b5035919050565b803560ff8116811461207b575f80fd5b634e487b7160e01b5f52604160045260245ffd5b604051601f8201601f1916810167ffffffffffffffff81118282101715612104576121046120c7565b604052919050565b5f601f83601f84011261211d575f80fd5b8235602067ffffffffffffffff8083111561213a5761213a6120c7565b8260051b6121498382016120db565b9384528681018301938381019089861115612162575f80fd5b84890192505b858310156121eb5782358481111561217e575f80fd5b8901603f81018b1361218e575f80fd5b858101356040868211156121a4576121a46120c7565b6121b5828b01601f191689016120db565b8281528d828486010111156121c8575f80fd5b828285018a8301375f928101890192909252508352509184019190840190612168565b9998505050505050505050565b5f805f805f806080878903121561220d575f80fd5b612216876120b7565b9550602087013567ffffffffffffffff80821115612232575f80fd5b61223e8a838b01611f70565b90975095506040890135915080821115612256575f80fd5b6122628a838b0161210c565b94506060890135915080821115612277575f80fd5b5061228489828a01611f70565b979a9699509497509295939492505050565b5f805f606084860312156122a8575f80fd5b6122b184612065565b92506122bf60208501612065565b9150604084013590509250925092565b5f805f604084860312156122e1575f80fd5b833567ffffffffffffffff8111156122f7575f80fd5b61230386828701611f70565b909790965060209590950135949350505050565b5f805f805f806080878903121561232c575f80fd5b863567ffffffffffffffff80821115612343575f80fd5b61234f8a838b01611f70565b909850965060208901359550604089013594506060890135915080821115612277575f80fd5b5f805f8060408587031215612388575f80fd5b843567ffffffffffffffff8082111561239f575f80fd5b6123ab88838901611f70565b909650945060208701359150808211156123c3575f80fd5b506123d087828801611f70565b95989497509550505050565b5f805f805f805f8060a0898b0312156123f3575f80fd5b6123fc896120b7565b9750602089013567ffffffffffffffff80821115612418575f80fd5b6124248c838d01611f70565b909950975060408b013591508082111561243c575f80fd5b6124488c838d0161210c565b965060608b013591508082111561245d575f80fd5b6124698c838d01611f70565b909650945060808b0135915080821115612481575f80fd5b5061248e8b828c01611f70565b999c989b5096995094979396929594505050565b5f602082840312156124b2575f80fd5b81358015158114612099575f80fd5b634e487b7160e01b5f52601160045260245ffd5b81810381811115611de257611de26124c1565b5f80858511156124f6575f80fd5b83861115612502575f80fd5b5050820193919092039150565b67ffffffffffffffff60c01b8960c01b16815287600882015286602882015285604882015284606882015282846088830137608892019182015260a8019695505050505050565b81835281816020850137505f828201602090810191909152601f909101601f19169091010190565b858152846020820152608060408201525f61259d608083018587612556565b90508260608301529695505050505050565b80820180821115611de257611de26124c1565b5f5b838110156125dc5781810151838201526020016125c4565b50505f910152565b858152846020820152608060408201525f612603608083018587612556565b828103606084015283518082526126218160208401602088016125c2565b601f01601f191601602001979650505050505050565b5f81612645576126456124c1565b505f190190565b634e487b7160e01b5f52603260045260245ffd5b838152818360208301375f910160200190815292915050565b5f825161268a8184602087016125c2565b9190910192915050565b5f80604083850312156126a5575f80fd5b505080516020909101519092909150565b6020808252602b908201527f496e697469616c697a61626c653a20636f6e7472616374206973206e6f74206960408201526a6e697469616c697a696e6760a81b606082015260800190565b8082028115828204841417611de257611de26124c1565b5f60208284031215612728575f80fd5b505191905056fea2646970667358221220236608aa40ff970704a0539b21914150c973dea193682a06175594bf2f5fc31364736f6c63430008180033","linkReferences":{}},"methodIdentifiers":{"addProver(address)":"1d49e457","addSequencer(address)":"8a336231","commitBatch(uint8,bytes,bytes[],bytes)":"1325aca0","commitBatchWithBlobProof(uint8,bytes,bytes[],bytes,bytes)":"86b053a9","committedBatches(uint256)":"2362f03e","finalizeBatchWithProof4844(bytes,bytes32,bytes32,bytes32,bytes,bytes)":"00b0f4d7","finalizeBundleWithProof(bytes,bytes32,bytes32,bytes)":"4f099e3d","finalizedStateRoots(uint256)":"2571098d","importGenesisBatch(bytes,bytes32)":"3fdeecb2","initialize(address,address,uint256)":"1794bb3c","isBatchFinalized(uint256)":"116a1f42","isProver(address)":"0a245924","isSequencer(address)":"6d46e987","lastFinalizedBatchIndex()":"059def61","layer2ChainId()":"03c7f4af","maxNumTxInChunk()":"ef6602ba","messageQueue()":"3b70c18a","owner()":"8da5cb5b","paused()":"5c975abb","removeProver(address)":"b571d3dd","removeSequencer(address)":"6989ca7c","renounceOwnership()":"715018a6","revertBatch(bytes,bytes)":"6df4e686","setPause(bool)":"bedb86fb","transferOwnership(address)":"f2fde38b","updateMaxNumTxInChunk(uint256)":"1e228302","verifier()":"2b7ac3f3","withdrawRoots(uint256)":"ea5f084f"},"id":162}